:100000000C94D50B0C94FD0B0C94FD0B0C94FD0B78
:100010000C94FD0B0C94FD0B0C94FD0B0C94FD0B40
:100020000C94FD0B0C94FD0B0C94FB1F0C946A209C
:100030000C94FD0B0C94FD0B0C94FD0B0C94FD0B20
:100040000C94FD0B0C94FD0B0C94FD0B0C94FD0B10
:100050000C94FD0B0C94FD0B0C94FD0B0C949C224A
:100060000C94FD0B0C94FD0B0C94FD0B0C94FD0BF0
:100070000C94FD0B0C94FD0B0C94FD0B0C94FD0BE0
:100080000C94E6220C94FD0B0C94FD0B0C94FD0BD0
:100090000C94FD0B0C94FD0B0C94FD0B0C94FD0BC0
:1000A0000C94FD0B0C94FD0B0C94FD0B0003000055
:1000B00000003C00000005060500000501050005E4
:1000C0000605000000010101000001000100000020
:1000D0000200020101000201010506040101010400
:1000E0000104000000000000000000000000020009
:1000F00005010101040601050201050601010000D8
:1001000000000005010005060100050000050500CE
:10011000000000400605010402010105010102047E
:1001200001010205060005000200000200000605AC
:1001300000010001000000010501010000050000B0
:1001400001000100000002000002000000000001A8
:10015000060500000001010501000000000606057B
:1001600006010101020000020101010105060D0066
:10017000000000002900020104000000000000004F
:100180000401020000000001000000000000000166
:100190000000000002010401010101040101040149
:1001A0000200000600060000060001000001000534
:1001B000000005010500000506010000010605001C
:1001C000000001000000000000000000010000022B
:1001D00002000000002500000005010506050000E2
:1001E00000000005000000000100060506000000F8
:1001F00000000100000001060100010000000000F5
:1002000000010000000001000001000505060000DB
:1002100001000000000101010401040601010105C3
:1002200000000000000000050005050600000000B9
:10023000020200000000270000000005010506057D
:10024000000000000000000000000100050505009E
:100250000000000000000001010400000200000096
:100260000500000000000000010000020404060672
:100270000500000000000001010001000000050071
:10028000000000000501060101050000000000005B
:100290000000050000000037000005060500000012
:1002A0000000000000000000000101010000000645
:1002B000050600050600000001000100000005041D
:1002C000050001050000000100010000000004001D
:1002D00000050000000501040400010501040601F9
:1002E00001000001040506010104010506060400E1
:1002F00000000602000000002900000005010501C1
:1003000005010500000000000000000105010501D5
:1003100005010000000000000000050105010501C5
:1003200005000000000000000001050105010501B5
:1003300000000000000000000501050105010500A6
:10034000000000000000000105010501050100009A
:100350000000000202000000002500000005060564
:100360000000000506050000000000000201010178
:100370000001030101000000000001040000010071
:10038000010000040100000000000100000401045D
:100390000000010000000000000605060100010643
:1003A0000505000000000000000501000000010537
:1003B000000000000202000000001B00000000001E
:1003C0000000000000000000000000000000050622
:1003D0000501020000000000000000010104050109
:1003E00001010105060000000000000001010101FB
:1003F00000010601050000000000000506060500DA
:1004000000000000000000000000000100000000EB
:100410000000000000080200000000340000060197
:1004200001040601050000000000000000040000B7
:1004300001000001000000000000000001000001B8
:10044000050101000000000000000001050001009E
:10045000000000050405000000000504010401017E
:100460000501040100000000000000000105010575
:100470000605000000000A00000000001E00000049
:100480000000000005010101000000000000000064
:100490000501000100000000000000000000000451
:1004A000060104000005000000000000000001003B
:1004B0000004050104050000000000000005010122
:1004C0000600000100000000000000000000000124
:1004D000010105000000000302000000001D0000F3
:1004E00000000005010001010500000000000000FF
:1004F00000000101000101000000000000000001F7
:1005000002040501060405000000000000000000D0
:1005100005010000050100000000000000000004CB
:1005200000000000000000000000000000050300C3
:10053000000000000000000004040000000027008C
:1005400000000000000005000105000000000000A0
:100550000000000000040504040105000000000084
:10056000050101000101000100010000000000017F
:10057000000401010000010106000000000001016B
:10058000050005000501000100000000000000005A
:100590000001010100000500000304000000002923
:1005A000000005060401010601060101000000002B
:1005B0000000010506000105010001010000000026
:1005C0000001000000000001000005000000000024
:1005D0000500000000060405000100000000000105
:1005E00005040405040001010600000000000000ED
:1005F00000000500000001010000030400000000ED
:1006000020000000000000000000000506010000BE
:1006100000000000010101000101040500000000CC
:1006200000000005000100050001000000000000BE
:1006300000010106050101010400000000000000A6
:10064000010001000006000600000000000000009C
:100650000501010104010500000000040400000080
:100660000023000000050000000000050401050053
:10067000000000000105010501010001000100006A
:100680000000000101050100010106010100000058
:100690000000010000010000000101000000000056
:1006A000000501010500000101000000000000003C
:1006B0000000000101050100000000000703000028
:1006C00000003000000000000000000000000506EF
:1006D00005000005010406000000000101040005FA
:1006E00000000405000500000001050001000000F5
:1006F00000050000010000010401010500000000E8
:1007000000000105040100010000000000000000DD
:1007100000050100010101000000000000030400C9
:10072000000000250000050005000000000000009A
:10073000000000000001060405010101010105019E
:1007400000000000000100010001000001000100A4
:100750000000000001000100010105040105000086
:100760000000000101020101050004000100000079
:100770000000000000000001010601050000030167
:100780000000000021000000000006040401010137
:100790000500000000000001010400050001000444
:1007A0000000000000000000060101010501060034
:1007B0000000000000000001000001000001000036
:1007C000000000000000050000050101010000001C
:1007D0000000000000000000000000000000000514
:1007E00003000000002100000001010304060101D4
:1007F00000000000000000000100010001000500F1
:1008000000000000000000050001000500010101DA
:1008100000000000000000000105010101000500CA
:1008200000000000000000000100050000010000C1
:1008300000000000000000010104010101000000AF
:100840000702000000002300000005010101000074
:100850000106050000000000000105010406010476
:100860000500000000000000000100000100010080
:10087000000000000000000001000000000405006E
:100880000000000000000501010101010105050053
:100890000000000000000000000000000000000058
:1008A000000302000000001D000000000000000026
:1008B0000000000000000000000000010101010133
:1008C000060101000000000000010501000500050F
:1008D000000501000000000001000100010101010C
:1008E00000010000000000050105010501000106EE
:1008F00001000000000000000000000000000000F7
:1009000000000303000000001B00000000010501BF
:1009100001000000000000000000000001000001D4
:1009200000000000000000000000000601010100BE
:1009300000000000000000000001040500000000AD
:10094000000000000000000000000100010501019E
:10095000050000000000000000050106010105007F
:100960000000000303000000001000000000000071
:10097000000000000000000000000000000005046E
:10098000050105000000000000000000000100015A
:10099000000100000000000000000101010005014D
:1009A0000406050000000000000000000000000038
:1009B0000000000000000000000000000000000037
:1009C0000000000006020000000016000000000009
:1009D000000501010005000000000000000000000B
:1009E0000100010001000000000000000001010200
:1009F00000050001000000000000000001000100EF
:100A000001000100000000000000000501010101DB
:100A100001010000000000000000000000000000D4
:100A200000000000000504000000001200000000AB
:100A300000050105010500000000000000000000A5
:100A4000010002000000000000000000000000059E
:100A50000305020500000000000000000000000087
:100A60000100000000000000000000000001010182
:100A70000000000000000000000000000000000076
:100A80000000000000000403000000000F00000050
:100A90000000000000050000000000000000000051
:100AA0000000050106050000000000000000000035
:100AB000000105010000000000000000000001012D
:100AC000010005000000000000000000000000011F
:100AD0000501000000000000000000000000000010
:100AE000000000000000000704000000000E0000ED
:100AF00000000000000500000000000000000000F1
:100B000000000000020000000000000000000000E3
:100B100000050206030500000000000000000000C0
:100B200000000100000000000000000000000000C4
:100B300000010000000000000000000000000000B4
:100B40000000000000000000020307000C000A0083
:100B50000000000000000000000000000000000095
:100B60000000000000000000000000000000000085
:100B70000000000000000000000000000000010173
:100B80000101010501010101050000000000000054
:100B90000000000000000000000000000000000055
:100BA00000000000000000000003050B020000141C
:100BB0000000000000000000000000000000000035
:100BC000000000000102030201000000000000001C
:100BD0000000000100000001000000000000000013
:100BE0000000010100010100000000000000000001
:100BF00000000100010000000000000000000101F1
:100C000001010001010105000000A90B480BE70AE2
:100C1000860A250AC40963090209A1084008DF07FA
:100C20007E071D07BC065B06FA0599053805D70443
:100C300076041504B4035303F20291023002CF018B
:100C40006E010D01AC00F8FCFEFFFFFFFFFFFEFC94
:100C5000F80101010101010101010101F8F8FCFEA7
:100C6000FEFEFEFEFCF8F801010101010101010197
:100C70000101F8F8FCFCFCFCFCFCFCF8F8010101AB
:100C80000101010101010101F8F8FCFEFEFEFEFE7A
:100C9000FCF8F801010101010101010101010B0949
:100CA000F8FC82818981898182FCF80101010101BE
:100CB000010101010101F8F884829282928284F894
:100CC000F80101010101010101010101F888848499
:100CD000A484A4848488F8010101010101010101B7
:100CE0000101F8F884829282928284F8F80101016D
:100CF0000101010101010101000000FEFFFFFFFFF2
:100D0000FFFFFE00000000040E1E3F7FFFFFFFFFFD
:100D10007F3F1E0E040000000000000001010000E3
:100D200000000000000F12000000FE01010101019F
:100D300001FE00000000040A1223408000008040F1
:100D400023120A040000000000000001010000005E
:100D5000000000000B0BFFFFFFFFFFFFFFFFFFFF87
:100D6000FF07070707070707070707070B0B000021
:100D7000FCFCFCFCFCFCFC0000000001010101018A
:100D800001010000FFFFFFFFFFFFFFFFFFFFFF0666
:100D9000060606060606060606060B0B0000000001
:100DA0000000000000000000000000000000000043
:100DB0000000FFFFD7EBD7EBD7EBD7FFFF0404040E
:100DC0000404040404040404FFFFE3C7CFDBF3E3DB
:100DD000C7FFFF0404040404040404040404FFFF24
:100DE000C7E3F3DBCFC7E3FFFF04040404040404F8
:100DF00004040404FFFFFFFFFFFFFFFFFFFFFF04EA
:100E000004040404040404040404FFFFC3C3C3C3B0
:100E1000C3C3C3FFFF04040404040404040404045F
:100E2000FFFFC3DBDBDBDBDBC3FFFF0404040404E5
:100E3000040404040404000000000000000000009A
:100E4000000000000000000000000000FFFFD7EBE2
:100E5000D7EBD7EBD7FFFF04040404040404040415
:100E60000404FFFFFFFFFFFFFFFFFFFFFF04040479
:100E70000404040404040404FFFFFFFFFFFFFFFF5A
:100E8000FFFFFF0404040404040404040404FFFF3B
:100E9000E7E7818181E7E7FFFF0404040404040419
:100EA00004040404FFFFC3C3C3C3C3C3C3FFFF04DD
:100EB00004040404040404040404FFFFC3DBDBDBB8
:100EC000DBDBC3FFFF04040404040404040404047F
:100ED00080C0FEFFFFFFFEC08000000103070F0778
:100EE000030100000A0C80407E0101017E40800069
:100EF000000102040804020100003C3E3F3F3F3E67
:100F00003C3C3E3E3E3E3E3C383C3E3E3E3C383C19
:100F10003E3E3E3E3E3C0707003E3E3E3E3E007F9C
:100F20007F7F7F7F7F7F1F077F7F7E1C0E7F7F00FD
:100F30003C7C447C3C001C3C603C1C003C7C445C95
:100F40001C001C5C54747055083F7F7F41436360F4
:100F5000003C7C447C3C007C7C047C78003CBC8471
:100F6000FC7C007C7C0404003074447C7C007F7F2B
:100F70004404003C7C407C7C003F7F003074447C17
:100F80007C007F7F4404007D3D003C7C447C3C0031
:100F90007C7C047C78001C5C547470005F5F3707B5
:100FA0003F7F7F4040003074447C7C001C5C547464
:100FB00070007F7F4404000000003F7F7F404000BE
:100FC0003C7C445C1C001C3C603C1C003C7C445C45
:100FD0001C003F7F005F5F94023200B8013200B412
:100FE0000032000080DC003200B8013200700332B1
:100FF000000080180132000080E001320000807C97
:1010000001320000800707000000000000005F5B65
:10101000555B555B5F5F59535559535F5F53595546
:1010200053595F5F5F5F5F5F5F5F5F515151515128
:101030005F5F51555555515F000000000000005F93
:101040005B555B555B5F5F5F5F5F5F5F5F5F5F5FD0
:101050005F5F5F5F5F5F5B515B5F5F5F51515151EE
:10106000515F5F51555555515F040500040E1F0433
:10107000051F0E04003E077F7F7F007C7C047C7888
:10108000001C5C547470007F7F4404007C7C04046A
:10109000003C7C407C7C003C7C4444007F7F4404DA
:1010A000007D3D003C7C447C3C007C7C047C7800E2
:1010B0001C5C5474700706050D1D3D1D0D050B09C4
:1010C0000088D8A8444244A8D88800000000000046
:1010D0000000000000000B090088D8F87C7E7CF836
:1010E000D88800000000000000000000000088DC3C
:1010F000FCFCFEFFFEFCFCDC88000101010000009E
:101100000101010007077F7F7F41417F7F000000D1
:10111000017F7F7F727B79494F6F66236341497FEF
:101120007F37070F0F08087F7F6F6F4F49797B3B31
:101130003F7F7F49497B3B6373791D0F0703377FEF
:1011400049497F7F372F6F49497F7F3F1A073F7F8C
:101150007F4040003C7C445C1C001C3C603C1C000C
:101160003C7C445C1C003F7F0706282C2E2F2E2C35
:10117000280208D4D205087F7F3E1C084120FE01CA
:1011800005F1F1F111D1B1D111F15151515151513B
:1011900051515151515151510000FF00007F7F09C1
:1011A000090F06007F7F19396F46007F7F4949414B
:1011B0004100266F49497B3200266F49497B32FF47
:1011C0000000FFFFFFFEFFFEFF0279CD95A5CD7960
:1011D0000111111101F9F901010000FF00007F7FE9
:1011E00009090F06007F7F40404040007C7E0B0BCA
:1011F0007E7C00070F78780F0700000000000000D9
:10120000FF00001F3F3F33333333333E36363E3625
:101210003E363E36363E36363E360000FF00003E55
:101220007F41417F3E007F7F0E1C7F7F00000000DA
:1012300000000000000000000000000000000000AE
:10124000003F40504040407846414159594141415A
:10125000415959414141414141414100007F000014
:1012600001017F7F0101007C7E0B0B7E7C007F7F74
:1012700009090F06007F7F49494141000000000035
:10128000000007063C22252125223C3C222A222A56
:10129000223C38242A222A24383C222A222A223C90
:1012A0002D083E7F7F41436360003C7C447C3C00D2
:1012B0007C7C047C78007F7F4404007D3D007C7C46
:1012C000047C78003C7C407C7C003C7C445C1C15AD
:1012D000087F7F7E1C387F7F003C7C445C1C001CA8
:1012E0003C6038603C1C6E20FFFFFFFFFFFFC3C364
:1012F000FFFF3F3F000000FFFFFFFFFFFF00000078
:1013000000FFFFFFFF00000003030303FFFFFFFFD9
:10131000FFFF0303030300000003030303FFFFFFBA
:10132000FFFFFF03030303000000FFFFFFFFFFFFBA
:101330000303FFFFFFFF000000FFFFFFFFFCFCF0C7
:10134000F0C0C0FFFFFFFF000000FFFFFFFFFFFF37
:10135000C3C3CFCFCFCF0F0F3F3F3F3F30303F3FD3
:101360003F3F0000000F0F3F3F3F3F303030303FE6
:101370003F3F3F000000000000003F3F3F3F3F3F36
:1013800000000000000000000000003F3F3F3F3F22
:101390003F000000000000000F0F3F3F3F3F303094
:1013A0003F3F3F3F0000003F3F3F3F3F3F03030FB2
:1013B0000F3F3F3F3F0000003C3C3C3C30303F3F54
:1013C0003F3F3F3FFCFC0C0C0C0C0C0C0C0C0C0CB1
:1013D000FCFC0000FCFCFCFCFCFCFCFCFCFCFCFC45
:1013E000FCFC0000FCFC3C3CCCCC3C3CCCCC3C3C75
:1013F000FCFC0000FCFC0C0CCCCCCCCCCCCC0C0C05
:10140000FCFC0000000000000C0C0C0CFCFCFCFCC4
:10141000FCFC0C0CCCCCC0C0C0C0C0C00000C0C024
:10142000C0C0C0C0C0C00000CCCCCCCC0000FCFC14
:10143000FCFCCFCFCCCCCCCCCCCCCCCCCCCCCFCF80
:101440000000CFCFCFCFCFCFCFCFCFCFCFCFCFCF4A
:101450000000CFCFCFCFCCCCCFCFCCCCCFCFCFCF46
:101460000000CFCFCCCCCCCCCCCCCCCCCCCCCFCF48
:1014700000000000000000000000FFFFFFFFFFFF72
:101480000000FFFFFFFF000000003C3CFCFCC0C070
:10149000FFFFFFFF0000FFFF3F3F00003F3FFFFF58
:1014A000FFFFFFFFFFFFC3C3FFFF3F3F000000FF41
:1014B000FFFFFFFFFF00000000FFFFFFFF00000035
:1014C00003030303FFFFFFFFFFFF0303030300000A
:1014D0000003030303FFFFFFFFFFFF0303030300FA
:1014E0000000FFFFFFFFFFFF0303FFFFFFFF000000
:1014F00000FFFFFFFFFCFCF0F0C0C0FFFFFFFF009C
:101500000000FFFFFFFFFFFFC3C3CFCFCFCF0F0F01
:101510003F3F3F3F30303F3F3F3F0000000F0F3F16
:101520003F3F3F303030303F3F3F3F000000000042
:1015300000003F3F3F3F3F3F000000000000000031
:101540000000003F3F3F3F3F3F0000000000000021
:101550000F0F3F3F3F3F30303F3F3F3F0000003FD6
:101560003F3F3F3F3F03030F0F3F3F3F3F00000020
:101570003C3C3C3C30303F3F3F3F3F3FFCFC0C0C91
:101580000C0C0C0C0C0C0C0CFCFC0000FCFCFCFC13
:10159000FCFCFCFCFCFCFCFCFCFC0000FCFCFC3C43
:1015A0003C3C0C0C3C3C3CFCFCFC0000FCFC0C0CF3
:1015B000CCCCCCCCCCCC0C0CFCFC00000000000053
:1015C0000C0C0C0CFCFCFCFCFCFC0C0CCCCCC0C0D3
:1015D000C0C0C0C00000C0C0C0C0C0C0C0C000000B
:1015E000CCCCCCCC0000FCFCFCFCCFCFCCCCCCCC0D
:1015F000CCCCCCCCCCCCCFCF0000CFCFCFCFCFCFAB
:10160000CFCFCFCFCFCFCFCF0000CFCFCFCFCFCF88
:10161000CCCCCFCFCFCFCFCF0000CFCFCCCCCCCC8A
:10162000CCCCCCCCCCCCCFCF000000000000000054
:101630000000FFFFFFFFFFFF0000FFFFFFFF0000B4
:1016400000003C3CFCFCC0C0FFFFFFFF0000FFFFB0
:101650003F3F00003F3FFFFF03081F051F1F151BF3
:101660001F11111F110E1F15111F05011F111D1F25
:10167000041F001F0010101F1F041B1F10101F0647
:101680001F1F011F1F111F1F05071F311F1F051BD4
:1016900017151D011F011F101F0F100F1F0C1F1BFF
:1016A000041B071C071915130C121E1F120C1E1207
:1016B000120C121F0C1A14041F052E2A1E1F021CC6
:1016C000001D00201D001F041A011F001E041E1E05
:1016D000021E1E121E3E120C0C123E1E0206141298
:1016E0000A020F121E101E0E100E1E081E1A041AD9
:1016F0002E281E1A12161F111F00001F1D1517116C
:10170000151F07041F17151D1F151D01011F1F158C
:101710001F17151F001700001000040404040E0416
:101720000229060A0000D5F08D14A1C881CFD9F195
:10173000AF2000080B0002020200000904000001B3
:101740000202000005240010010524010101042407
:101750000206052406000107058103100040090464
:101760000100020A00000007050202400000070510
:1017700083024000000403090412010002EF020189
:101780004041233680000101020301417264756902
:101790006E6F204C4C430041726475696E6F204C33
:1017A000656F6E6172646F007A2311241FBECFEFE4
:1017B000DAE0DEBFCDBF14E0A0E0B1E0E6EAF1E59B
:1017C00002C005900D92A631B107D9F729E0A6E134
:1017D000B4E001C01D92A435B207E1F71BE0C5EDEE
:1017E000DBE004C02197FE010E94C428C43DD1075C
:1017F000C9F70E94F0230C94D1280C94000080912A
:1018000083040895480F592F511D1416150684F5A9
:10181000803891056CF597FF02C090E080E0413878
:10182000510514F040E850E0481BFB01E770FF272A
:1018300021E001C0220FEA95EAF777FF02C0695F55
:101840007F4FFB0133E0F595E7953A95E1F7F69583
:10185000FE2FEE27F795E795E80FF91FE156FB4FAE
:10186000415030F08191DF011197822B8C93F8CF9A
:10187000089590914F09982329F490914E09982347
:1018800081E009F480E00895EFE9F4E081E0A0E070
:10189000B8E000800EBC8111012C1197A0FDFDCF96
:1018A0000192B9F70DB40895FC0180919E0488233C
:1018B00011F13FB7F89482E08093E9002091F200A3
:1018C000822F90E01816190614F481E090E0882326
:1018D00039F0289844E640939D044091F1004083FC
:1018E000222339F02091F200211103C02BE620932E
:1018F000E8003FBF08958FEF9FEF08952FB7F8944A
:1019000083E08093E9009091E800892F807295FF31
:1019100004C09091F20080E4891B2FBF089580914C
:10192000950481110DC082E08093910484E080933E
:101930009204109294041092930481E08093950491
:1019400081E994E00895CF93DF931F92CDB7DEB77E
:101950006983DC01ED91FC910280F381E02D41E08F
:1019600050E0BE016F5F7F4F09950F90DF91CF91DF
:10197000089583E08093E9008091F200882319F0B4
:101980008AE38093E80008950E947E0C90E0089519
:10199000CF93DF931F92CDB7DEB7FC018485958589
:1019A00097FD08C02FEF3FEF358724870F90DF9119
:1019B000CF910895CE0101960E94540C019719F41D
:1019C000898190E0F3CF8FEF9FEFF0CF0F931F93BC
:1019D000CF93DF931F92CDB7DEB78C01FC018485D6
:1019E000958597FF0BC0CE0101960E94540C01977C
:1019F00071F4898190E0F80195878487F8018485E6
:101A000095850F90DF91CF911F910F9108958FEFE2
:101A10009FEFF1CFFC018485958597FD0BC09FB7A3
:101A2000F89482E08093E9008091F2009FBF90E0FB
:101A3000019608959FB7F89482E08093E900809121
:101A4000F2009FBF90E0089540918B0450918C0468
:101A50002091890430918A0442175307B4F490917D
:101A6000E8009570E1F39091E80092FD19C0809331
:101A7000F10080918B0490918C0401968F739927CB
:101A8000892B19F48EEF8093E80080918B0490915C
:101A90008C04019690938C0480938B0481E00895CC
:101AA00080E00895DF92EF92FF920F931F93CF9300
:101AB000DF93D82E8A01EB017B01E40EF51ECE15D3
:101AC000DF0559F0D7FE12C0FE0184910E94240D5B
:101AD00021968111F4CF0FEF1FEFC801DF91CF9155
:101AE0001F910F91FF90EF90DF9008958881EECFC6
:101AF0000F931F93CF93DF931F92CDB7DEB782E092
:101B0000898342E450E063E377E180E80E94520D6C
:101B10000E948F0CDC0112960D911C91011511058C
:101B200089F0D801ED91FC910280F381E02DBE0196
:101B30006F5F7F4FC801099597FD04C0F8010085CC
:101B40001185ECCF89810F90DF91CF911F910F917B
:101B50000895615030F02091F100FC01208301963E
:101B6000F8CF289884E680939D040895AF92BF92A1
:101B7000CF92DF92EF92FF920F931F93CF93DF9359
:101B80006C017B018B01040F151FEB015E01AE1888
:101B9000BF08C017D10759F06991D601ED91FC91AA
:101BA0000190F081E02DC6010995892B79F7C501D7
:101BB000DF91CF911F910F91FF90EF90DF90CF9029
:101BC000BF90AF9008953FB7F89480917F049091B3
:101BD0008004A0918104B091820426B5A89B05C021
:101BE0002F3F19F00196A11DB11D3FBFBA2FA92F9C
:101BF000982F8827BC01CD01620F711D811D911D99
:101C000042E0660F771F881F991F4A95D1F7089504
:101C10008F929F92AF92BF92CF92DF92EF92FF92FC
:101C20006B017C010E94E30D4B015C01C114D104E6
:101C3000E104F104B9F00E94E30D681979098A09F9
:101C40009B09683E73408105910580F321E0C21A2B
:101C5000D108E108F10888EE880E83E0981EA11CE7
:101C6000B11CE4CFFF90EF90DF90CF90BF90AF908A
:101C70009F908F9008958F929F92AF92BF92CF9234
:101C8000DF92EF92FF920F931F93CF93DF936C013C
:101C90007B018A0180915502882309F45CC0809100
:101CA0009E04882309F457C08091900480FF05C0EA
:101CB0008091E00082608093E000E801B12C8AEF1F
:101CC000A82E93E0892E2AE3922E209711F4BB20B0
:101CD000D9F10E947E0C81110AC0AA94AA20D9F1E0
:101CE00061E070E080E090E00E94080EEECF8C177B
:101CF0001D0611F00CF08C2F9FB7F8948092E9002C
:101D00002091E80025FD02C09FBFDFCF282F30E0E3
:101D1000C21BD30BF701815020F041914093F10099
:101D2000FACFE20EF31EBB2021F09092E800B12C16
:101D3000EBCF8091E80085FDE7CF9092E800BB24CF
:101D4000B394209709F3F3CF5D9884E680938F04D2
:101D5000101611063CF081E090E0F6019383828337
:101D600010E000E0C801DF91CF911F910F91FF902B
:101D7000EF90DF90CF90BF90AF909F908F9008959D
:101D800020917704E0917504F0917604CF010296DA
:101D90009093760480937504222319F08591949191
:101DA0000895808191810895CF92DF92EF92FF9202
:101DB000CF93DF930E94C00E811520E8920791F423
:101DC000809171008D7F80937100109291004698F0
:101DD000479810927404DF91CF91FF90EF90DF90BD
:101DE000CF90089521E020937404813020E8920779
:101DF00051F48091720490917304909376048093CF
:101E000075040E94C00E97FD05C020917104222325
:101E100009F454C020917004211150C021E0209396
:101E20007804EC01DF77209709F04BC081E08093C4
:101E3000790446983FE9C32E3FE0D32EE12CF12CE4
:101E4000CAEFD0E0E091FD08F091FE0809958111FC
:101E500003C081E08093790480917804882329F07D
:101E600080917904882309F43FC047980E94C00EEE
:101E70000097F1F19C01DE010E947127DC01CB018A
:101E800029E0B595A795979587952A95D1F7109252
:101E900090002AE020939100D0929900C09298007F
:101EA00080937A0490937B04A0937C04B0937D0488
:101EB000809171008260809371008DCF10927804C0
:101EC000B0CF9E0150E040E060E472E48FE090E02B
:101ED0000E941D2769017A0181E0C81AD108E10832
:101EE000F10810927904AECF4699BFCF479ABECF82
:101EF0008FEF9FEFDC01CBCF9C01E1E7F0E0908119
:101F00009D7F908381E080937704309376042093C3
:101F1000750430937304209372040C94D40E2F92A2
:101F20003F924F925F926F927F928F929F92AF9269
:101F3000BF92CF92DF92EF92FF920F931F93CF93B6
:101F4000DF9300D000D01F92CDB7DEB7FB01BC01FC
:101F5000600F711D7A836983161617060CF0FCC09A
:101F6000BF016E0D711D161617060CF0F5C0E0349A
:101F7000F1050CF0F1C04115510509F4EDC07E2FBB
:101F80007770672EDF01F7FD179613E0B595A795DB
:101F90001A95E1F77A2FF7FF04C0662011F07FEF62
:101FA0007A0FEE27FF27E81BF90B97FD02C0F0E040
:101FB000E0E0A981BA81D02EA038B1051CF0A0E8DC
:101FC000DA2ED81ADE1AA72F072E000CBB0B7F3F84
:101FD0000CF0A7C0FA2EF094FD8211E019836E2D4B
:101FE000677009F41982E694E694E6946981E60E36
:101FF000AE0DB11D19971CF068E0E62EE71A7D8042
:10200000770E172D60E81603D00111248A0F9B1F4D
:102010008E0F9F1F262C062C000C3308A3E0CA123B
:1020200082C0B2E0BB83602F6D19AB816A9F602DC7
:1020300011248A2E912CBD810B9FE00DF11D1124DE
:10204000E89DD001E99DB00DF89DB00D11245A0115
:10205000AA0EBB1E2115310509F49A01A4014150B5
:102060005109A40FB51F2A0F3B1FAFEFB0E0062C9C
:1020700002C0AA0FBB1F0A94E2F7AD01409550952C
:102080005A8349834E2C470E70E05B815D9D600D45
:10209000711D1124741409F45FC0DC01A156BB4FFB
:1020A000BC83AB8310E000E0512CD51409F44CC084
:1020B000F501E00FF11F449150E0022C02C0440FE3
:1020C000551F0A94E2F7B2E0E981FA81CB1641F09C
:1020D000EBEFCE122BC0FA01E095F09550E040E016
:1020E00077FC06C0AB81BC81FC90FE22F42AFC92F6
:1020F000662069F0B6E0B71554F0EB80FC80A0E8EC
:10210000EA0EF11CD7014C914F23452B4C9353946D
:10211000080D191D4B815C814F5F5F4F5C834B83C2
:10212000C4CF1D825ACF11E01B837DCFF901E00F90
:10213000F11FE491F0E0022C02C0EE0FFF1F0A94A1
:10214000E2F7E095F095CCCF7394A60EB71E260F5C
:10215000371F80589F4F9ECF0F900F900F900F907A
:102160000F90DF91CF911F910F91FF90EF90DF9033
:10217000CF90BF90AF909F908F907F906F905F9027
:102180004F903F902F9008956F927F928F929F92E1
:10219000AF92BF92CF92DF92EF92FF920F931F9375
:1021A000CF93DF934C01CB013A017C2DFA0164916E
:1021B00031965491F2E06F0E711CC62FD0E02111C0
:1021C00002C0EE2009F1E1E0F0E0352F377011F4A4
:1021D000F0E0E0E0A52FA695A695A695AE0FBF2F3F
:1021E000B11DAC9FF001AD9FF00DBC9FF00D11240F
:1021F000733009F088C0EE0FFF1F2E9FD0012F9F74
:10220000B00D11246A0E7B1ED401AC0FBD1F1A162F
:102210001B060CF069C020E8821691040CF064C023
:102220009C01250F311D121613060CF05DC0803481
:1022300091050CF059C06114710409F455C0382F90
:102240003770FC0197FD379623E0F595E7952A95C1
:10225000E1F72E2F97FF04C0332311F02FEF2E0F3D
:10226000EE27FF27E819F90997FC02C0F0E0E0E04B
:1022700090E89819A038B1050CF4962F9E1BA22F58
:10228000022E000CBB0B4A2F40952F3F0CF040E074
:10229000DD24D394852F877009F4D12C569556955B
:1022A0005695D50EAD0DB11D19971CF058E0D52EE1
:1022B000D21AD41A240F50E82503D0011124A80DF6
:1022C000B91DAE0FBF1F649FE00DF11D11246E0EEE
:1022D0007F1EE32E032E000CFF08723009F454C059
:1022E000F0F4713009F499C0DF91CF911F910F91F3
:1022F000FF90EF90DF90CF90BF90AF909F908F9026
:102300007F906F9008950115110509F476CFEE9E28
:10231000D001EF9EB00D11240A0F1B1F6ECF73303A
:1023200009F4C4C00D2D020F7A3FF1F62017E1F237
:10233000BD0161567B4FD12CC12CC91608F067C076
:10234000F301EC0DFD1DE491F0E0AF010E2C02C095
:10235000440F551F0A94E2F727FD04C0FB0180815A
:10236000842B8083332351F0273044F45B01F0E861
:10237000AF0EB11CF5018081852B8083FFEFCF1A52
:10238000DF0A6F5F7F4FD9CF6FEF70E0032E02C07F
:10239000660F771F0A94E2F760957095972E8D2C43
:1023A000820E281509F4A0CF8D0101561B4FD12CA8
:1023B000C12CC91630F5F301EC0DFD1DE491F0E0E0
:1023C000AF010E2C02C0440F551F0A94E2F727FDFF
:1023D00005C0F80180818623842B8083332359F044
:1023E00027304CF45801F0E8AF0EB11CF5018081A4
:1023F0008921852B8083FFEFCF1ADF0A0F5F1F4FE4
:10240000D8CF2F5F6C0E7D1EA058BF4FCACF2F5F55
:102410006C0E7D1EA058BF4F89CF0E0F1F1F8D2D34
:10242000820F821709F460CFBD0161567B4FD12C1A
:10243000C12CC91698F5F801EC0DFD1DA490B12C26
:102440000E2C02C0AA0CBB1C0A94E2F7A094B09414
:10245000F301EC0DFD1D8490912C0E2C02C0880C14
:10246000991C0A94E2F727FD08C0FB014081E42F84
:10247000EA214E2F4829FB014083332349F02730BE
:102480003CF4FB01E058FF4FA080BA20B928B0828D
:10249000FFEFCF1ADF0A6F5F7F4FCBCF2F5F6C0E3E
:1024A0007D1E0C0F1D1FA058BF4FBBCFE92EF12C76
:1024B000E60DF71DA156BB4F60E870E06E197F096D
:1024C000CE19DF09AE01440F551FC1E0D0E07E01F7
:1024D000032E01C0EE0C0A94EAF7192F0D2D892E58
:1024E000932ECF93DF93ED01EF96EF962296A59072
:1024F000C590992059F0AE9C5001CE9C60012730C8
:102500002CF4F880D094FD20FB28F99222233AF095
:10251000FC90C094FC20FA28FD920C949012119625
:102520001A9529F70A9551F0182D23951124E40FD7
:10253000F11DA60FB11DC60FD11DD9CFDF91CF91CF
:102540001124D2CECF92EF920F931F9332E0C32E7D
:10255000E12C10E000E00E94C4101F910F91EF9059
:10256000CF900895CF92EF920F931F93F901202FF0
:10257000CC24C3948F010E94C4101F910F91EF903F
:10258000CF900895BC0190E080E00C94080E8FB1CC
:102590008095807F669B88601C9B8460089580384E
:1025A0009105B8F460347105A0F420E191E061FD7B
:1025B00094E060FD990F62FD9295687F269FD0019F
:1025C0001124A80FA156BB4F8C9140FF03C0892B4B
:1025D0008C93089590958923FBCF0895CF92EF9225
:1025E0000F93CF93DF93EC016A3071F48D818C836C
:1025F0008E819985890F8E8381E090E0DF91CF9164
:102600000F91EF90CF900895AC816E3719F4AE5FC3
:10261000AC83F2CF962F6E816F5F9A33B8F490330C
:1026200008F05FC09B3209F45EC048F4913209F4AF
:102630005EC098859D5F8C81890F8C83DDCF9D3234
:1026400009F453C09E32A9F79FE311C09B3550F4A3
:10265000913408F044C09A3309F43FC09F3349F7DE
:1026600092E405C08FE9890F97548A3110F7062E3E
:10267000000C770B0A2E000CBB0BE8E5F6E129E510
:1026800036E18F818130A9F50491F901E4904AE5A2
:1026900056E19923D1F041E050E08E2D877011F47E
:1026A00050E040E02E2D269526952695240F352FB7
:1026B000311D029FF001039FF00D11249E9FA00188
:1026C0009F9F500D1124465A594E9AEFC92E30E063
:1026D00020E0CD010E948F0FACCF93E4C8CF91547E
:1026E000C6CF9C5FC4CF91E4C2CF90E4C0CF9EE33D
:1026F000BECF0491F901E4904AE556E19923D1F067
:1027000041E050E08E2D877011F450E040E02E2D16
:10271000269526952695240F352F311D029FF00111
:10272000039FF00D11249E9FA0019F9F500D112427
:10273000465A594E8BEFC82ECACF089590E080E0DC
:102740000895CF9380914F09809590914E098923E8
:1027500019F082E08093880420E04CE751E161E1C8
:1027600070E080E290E00E94A21280914C0990916A
:102770004D0960E370E00E94B028883170F4C1E137
:102780008C3008F0CEE120E045E751E169E170E0EE
:102790008BE590E00E94A21204C0CFE1843208F0E1
:1027A000C0E26C2F70E041E084E390E00E94CF1221
:1027B000C0FD0AC020E041E751E16CE170E08DE22C
:1027C00090E0CF910C94A212CF9108951F93209185
:1027D000220980911F091FE02103F0011124EA5E04
:1027E000FB4FE80FF11D87FDFA958081843009F4D5
:1027F00044C038F48130E9F083EF9FE01F910C94DE
:102800007C0F853009F44DC08630B1F789EF9FE029
:102810000E947C0F2091220980911F092103F00161
:102820001124EA5EFB4FE80FF11D87FDFA9585E064
:1028300036C083EF9FE00E947C0F20912209809197
:102840001F092103F0011124EA5EFB4FE80FF11D7F
:1028500087FDFA951082EBE0F9E09281911107C0B3
:1028600080832183138281E082831F9108953496AF
:1028700099E0EF31F90789F7F8CF8FEF9FE00E94D9
:102880007C0F2091220980911F092103F00111245E
:10289000EA5EFB4FE80FF11D87FDFA9581E080832A
:1028A000E4CF89EF9FE00E947C0F20912209809164
:1028B0001F092103F0011124EA5EFB4FE80FF11D0F
:1028C00087FDFA9586E0EBCFFC0101900020E9F747
:1028D0003197AF01481B590BBC018FE399E00C9471
:1028E000B60D1F93CF93DF9380913909883318F485
:1028F0008F5F8093390980E20E94390C882339F078
:1029000080913809882319F081508093380980E438
:102910000E94390C811105C088E00E94390C88237F
:1029200049F080913809823008F58F5F809338092B
:102930001092390920E045E750E170E060E090E056
:1029400080E00E94A21280913809813009F453C0BE
:1029500088F0823009F4B8C040E868E070E090E0A8
:1029600080E0DF91CF911F910C94020C88E080935E
:102970008804E0CF20E04FE650E170E060E08BE7B4
:1029800090E00E94A21210924309109244098FE035
:102990008093450985E892E00E94641410924309EF
:1029A0001092440988E18093450985EA92E00E94EB
:1029B0006414109243091092440986E280934509F9
:1029C00086EC92E00E94641410924309109244092C
:1029D0008FE28093450984EE92E00E946414109285
:1029E00043091092440988E38093450987E093E006
:1029F0000E946414B1CF20E049E650E170E060E04D
:102A000084E790E00E94A21220E04FE650E170E0DF
:102A100060E08BE790E00E94A212109243091092AE
:102A200044098DE0809345098AE293E00E94641492
:102A300020913B09D7E02D9F202D11242F5F45E0E9
:102A400050E16BE170E090E080E00E94A212CAE0E9
:102A5000C0934309C09344098BE18093450986E301
:102A600093E00E94641420913B092D9F202D112496
:102A70002C5F45E050E167E270E090E080E00E946A
:102A8000A212C0934309C093440987E28093450989
:102A900087E593E00E94641420913B092D9F202D2F
:102AA00011242D5F45E050E163E370E090E080E0A9
:102AB0000E94A212C0934309C093440983E3809308
:102AC000450985E793E094CF20E049E650E170E0C6
:102AD00060E084E790E00E94A21220E04FE650E11F
:102AE00070E060E08BE790E00E94A2121092430930
:102AF00010924409DDE0D093450986E993E00E94F5
:102B0000641420913B0917E0219F202D11242B5F95
:102B100045E050E16BE170E090E080E00E94A2129D
:102B2000CAE0C0934309C09344098BE180934509EF
:102B300086EA93E00E94641420913B09219F202D96
:102B400011242A5F45E050E167E270E090E080E008
:102B50000E94A212C0934309C093440987E2809364
:102B6000450986EC93E00E9464148091390988330A
:102B700058F081E2809343098093440988E380936D
:102B8000450984EE93E034CFD0934309D0934409B0
:102B900088E38093450987EF93E02ACFCF92EF92A5
:102BA0000F931F9380E20E94390C8111109231091A
:102BB00080E40E94390C882339F080913009882301
:102BC00019F081E08093310988E00E94390C882354
:102BD00081F080913109811165C010922F09109206
:102BE000380986E08093880460E08BE190E00E94E1
:102BF000FD260E94C71282FF13C080913A098F5FA1
:102C000080933A09803271F461E080913B09813010
:102C100009F460E060933B098DE190E00E94FD269D
:102C200010923A0920913B0946EE52E169E070E0CA
:102C300089E090E00E94A21220E04FEC52E161E3B3
:102C400070E089E190E00E94A2128091300988230F
:102C500049F020E040EA52E161E370E084E490E072
:102C60000E94A21220914C0930914D092F713327F7
:102C7000269526952695809131093CE2839FC001D7
:102C800011243AEFC32EE12C10E000E042E852E1BB
:102C900062E370E00E960E94C4101F910F91EF90B6
:102CA000CF90089584E080938804A3CF6F927F92A1
:102CB0008F929F92AF92BF92CF92DF92EF92FF924C
:102CC0000F931F93CF93DF9380912C09882319F0E2
:102CD000815080932C0980912D09882319F081500F
:102CE00080932D0988E00E94390C882379F0609147
:102CF0002B0960932F0910923609109235098BE148
:102D000090E00E94FD2688E08093880484E00E9481
:102D1000390C882319F082E08093880480E80E94AF
:102D2000390C882391F080912B09882371F09FEF53
:102D3000980F90932B0924E020932C0920913009BF
:102D4000243008F078C010922E0980E10E94390CDE
:102D5000882391F080912B0920913009821760F42B
:102D600091E0980F90932B0934E030932D09243093
:102D700008F073C010922E09C0912E09CC2309F4DB
:102D80007CC080912C0962E070E0811102C070E08B
:102D900060E020E048E651E18DE390E00E94A2125D
:102DA00046E370E060E090E080E00E94020C46E3C1
:102DB00070E060E08BE490E00E94020C9AE0F92E53
:102DC0008C2E912C83E0880E911C2AE0D22E0C2FA1
:102DD00010E080913009282F30E0843008F0940111
:102DE000201731070CF44FC0AF2CB12C20E04CE47D
:102DF00051E1B50184E190E00E94A2128C2F6D2D6B
:102E00000E94A428E92E0E94A428C92E81E0E8127D
:102E10006FC081E09813D6C0DAE3D3502E2D44E082
:102E200051E1B5018D2F90E00E94A21281E0E812DD
:102E30006DC085E06CC0923008F485CF921304C059
:102E4000845080932E0981CF2150330B92171306A3
:102E500011F48350F6CF8250F4CF923008F48ACF29
:102E6000291304C0825080932E0986CF2150330B42
:102E700092171306C1F78150F6CF40E870E060E08A
:102E800090E080E099CF8815190461F15CF18091A0
:102E90002D0968E370E0811102C06AE370E020E070
:102EA00045EB50E18DE390E00E94A21246E36FE310
:102EB00070E090E080E00E94020C46E36FE370E077
:102EC0008BE490E0DF91CF911F910F91FF90EF90F5
:102ED000DF90CF90BF90AF909F908F907F906F903A
:102EE0000C94020C40E86FE370E090E080E0EACFE1
:102EF00081E0DDE3981709F490CF2E2D44E051E1F5
:102F0000B5018DE390E00E94A212DDE388E0D81BBA
:102F10002C2D44E051E1B5018D2F90E00E94A212CA
:102F2000C8014F960E94F526D82F46ED50E1811139
:102F300002C04EEB50E1350181E0681A7108E12CC6
:102F400000E02EEE30E1B3018AE490E00E94B2127C
:102F500046ED50E1D23010F44EEB50E1E12C00E0B0
:102F60002EEE30E1B30186E590E00E94B21246ED0C
:102F700050E1D33010F44EEB50E1E12C00E02EEEA6
:102F800030E1B30182E690E00E94B21280912B09F9
:102F90008C1314C020914C0930914D092F713327A7
:102FA0002695269526958AEFC82E10E000E042E887
:102FB00052E1B50187E090E00E94C4108CE0F80E69
:102FC000CF5F05CF21E044E051E1B5018AE390E015
:102FD0000E94A212DAE32DCF2F923F924F925F927E
:102FE0006F927F928F929F92AF92BF92CF92DF9219
:102FF000EF92FF920F931F93CF93DF93CDB7DEB77E
:1030000028970FB6F894DEBF0FBECDBF809132096E
:1030100090913309892B11F58091260981111EC0E9
:1030200060911F09062E000C770BE09122090E2EED
:10303000000CFF0B46E154E030E020E090E080E03F
:10304000DA01A80FB91FAC916817790721F4E217CC
:10305000F30709F4FFC4A53009F0FFC480913209D9
:1030600090913309803891050CF010C5813091059D
:103070000CF08AC58C372FEF920709F40EC534F097
:103080008F3F4FEF940709F00CF47EC50E94C712E2
:1030900083FF7CC580913E098F5F80933E09883015
:1030A00051F460913D0981E0682760933D098EE10C
:1030B00090E00E94FD260E94C71282FF0AC0809104
:1030C0003A098F5F80933A09803229F482E0809335
:1030D000880410923A098091320990913309892B22
:1030E00001F58091260981111CC080913C09811154
:1030F00018C080E20E94390C882321F080911F09BA
:1031000087FF47C580E40E94390C81115BC580E8C8
:103110000E94390C81115DC580E10E94390C81113A
:1031200065C580912509811126C08091200987FD00
:1031300015C08F3099F0E0912309E7FD0FC0E6300C
:1031400069F03FE0E302F0011124EA5EFB4FE80F73
:10315000F11D87FDFA95808181110DC081E080937A
:1031600025098091320990913309892B21F487ED4B
:103170009FE00E947C0F80913C0981112CC18091BD
:103180003D09882309F45BC580912709082E000CAE
:10319000990B20911F095C0143EF2402A00CB11C84
:1031A00011245AE3A50EB11CA81AB90A809132095C
:1031B00090913309A80EB91E80912809082E000CA1
:1031C000990B209122096C0166EF2602C00CD11CDC
:1031D0001124A5E2CA0ED11CC81AD90A26E1422E32
:1031E00024E0522E36011601BCE32B0E311C17E0F1
:1031F0003DE0F32E912C812CF201E80DF91D0081A8
:103200000023A1F080913B09819F000D1124F89CBF
:10321000C001F99C900D1124E12C24E83DE04AE91D
:103220005DE0B3018A0D9B1D0E94B212EFEF8E1A72
:103230009E0AFFE08F169104F9F62FE0420E511C12
:103240003AE0630E711C62147304A1F68BE0882EC1
:1032500089E0982E1AE09DE0F92ED40112968C9107
:1032600012978823E9F011968C911197F601819FAE
:10327000E00DF11D112413966C9113976E0F7F2FA3
:10328000711D8C91E12C00E024E53DE04CE65DE011
:10329000D5018F9DA00DB11D1124CD010E94B21248
:1032A000B4E08B0E911CEFE18E16E9E09E06A9F6C4
:1032B0001FEF812E18E0912E1AE00DE0F02ED401C0
:1032C0008C9111969C91811102C09923D9F096019D
:1032D000919F200D311D1124F4016281620F732F23
:1032E000711D6D5F7F4F95018F9D200D311D112444
:1032F000C901E12C00E028EF3CE045E25DE00297E7
:103300000E94B21234E0830E911C4BE0841649E017
:103310009406A9F68091320990913309892B09F01E
:103320005AC080914C0990914D098F719927182F9F
:1033300016951695169580912209B6015AE08502D8
:10334000600D711D112480911F09D501EDE08E02E1
:10335000A00DB11D1124CD0120912509222309F4CE
:1033600059C420912609222309F447C42091280931
:10337000620F711D27FD7A9561507109E09127094F
:10338000E12E012F26E43CE04EE95CE08E0F911D1A
:10339000E7FD9A950E94B21280912409FAE08F020B
:1033A000C00CD11C112460912A096C0D7D2D711D5A
:1033B0006150710980912109E12E012F24E53DE042
:1033C0004CE65DE0D501EDE08E02A00DB11D1124AB
:1033D000CD010E94B21210E000E0F12CE12C40E09F
:1033E000B701C8010E94CF12BFEFEB1AFB0AEAE057
:1033F000EE16F104A1F70F5F1F4F0038110569F7B2
:1034000020E04CE451E170E060E090E080E00E9458
:10341000A21240912F092AE0842F622F0E94A42833
:10342000392F99830E94A428292F9A83842F64E638
:103430000E94A4288B831DE2313009F41AE2213066
:1034400009F41350813009F413509E012F5F3F4F50
:1034500079016E0134E0C30ED11CBE2C0F2DD701B3
:10346000AD907D012A2D44E051E170E060E0812FB4
:1034700090E00E94A212B1E085E0AB1288E0181B38
:10348000CE14DF0461F720E046E25FE070E060E028
:1034900087E490E00E94A21220913509309136090C
:1034A000283EE3E03E0710F027EE33E0EAE0F0E0EC
:1034B000C901BF010E94B028182F8983CB01BF0129
:1034C0000E94B028482F8A83C90164E670E00E94F8
:1034D000B028862F6B83113009F4EEC419E7413010
:1034E00009F41350813009F41350EB2CF02ED7015E
:1034F0000D917D01202F44E051E170E060E0812FCB
:1035000090E00E94A21285E0013009F088E0181BCB
:10351000EC14FD0461F740E868E070E090E080E0C2
:103520000E94020C80913D09882309F4C7C483E0FE
:103530005CE020911F09409120092417D1F090915F
:10354000270942170CF0BDC4282F2195920F292F6F
:10355000092E000C330B37FF03C03195219531093B
:10356000022E000C330B5217130609F4ACC49093CF
:10357000270920912209409123092417D1F0909125
:10358000280942170CF0A6C4282F2195920F292F45
:10359000092E000C330B37FF03C0319521953109FB
:1035A000022E000C330B5217130609F495C49093A6
:1035B000280990912509992331F1909126099111BB
:1035C00005C090912909980F9093290990912A0993
:1035D000890F80932A09909129099134A0F08134B0
:1035E00090F01092290910922A09109225098091D1
:1035F000320990913309892B31F484E090E0909363
:10360000330980933209EBE0F9E08281882331F0BD
:1036100083818E5F8383813408F012823496B9E00F
:10362000EF31FB0791F780914C0990914D0966E0CD
:1036300070E00E94B028892B79F4EFEFF8E091E078
:103640008381882309F44FC4813009F453C434962C
:1036500029E0EB30F207A1F780913C09882309F4B7
:10366000E0C1C0903509D090360910913709E12E9C
:10367000F12CC7010296C816D90608F443C4B60156
:1036800090E080E00E9485274B015C01B701FF0CB0
:10369000880B990B0E94872720E030E040EC5FE325
:1036A0000E94E6279B01AC01C501B4010E9480275E
:1036B00087FD2DC433E0139FC0011124C816D9061D
:1036C00008F428C41C824EEB50E1E12C00E02EEE01
:1036D00030E164E170E08DE290E00E94B2128C81F2
:1036E00046ED50E1823010F44EEB50E1E12C00E069
:1036F0002EEE30E164E170E08BE390E00E94B212C4
:103700009C8146ED50E1933011F04EEB50E1E12CFD
:1037100000E02EEE30E164E170E089E490E00E9488
:10372000B21280912F0920E08D3109F038C44EE9A2
:103730005FE060E270E085E290E00E94A212B0E0FB
:10374000EB2EB1E0FB2E1701D1011A960C91C02E81
:10375000D12CB02F2EE130E0A0E00E94CA28472FE4
:10376000582F692F772767FD7A95F1018681978118
:10377000841B950B97838683A481B58125EF30E068
:103780000E94CA28472F582F692F772767FD7A95FF
:103790005583448380E890E08C199D092081318114
:1037A000821793073CF49183808351954195510989
:1037B00055834483D1018D919C91119797FF0EC041
:1037C00011961C921E9214968D919C91159791952D
:1037D0008195910915969C938E931497F10182819E
:1037E00093818134910534F020E430E033832283E7
:1037F00017821682D10112968D919C91139797FF93
:1038000004C017961C921E921697F10125812D83F4
:10381000220F220B2E83208131814D815E81240F66
:10382000351F3183208327812F83220F220B288786
:10383000AF81B8858A1B9B0B938382831185612F8F
:1038400070E090E080E00E9487274B015C01F1016D
:10385000608570E090E080E00E9487272B013C01AA
:1038600020E030E040E05FE30E94E6279B01AC01EE
:10387000C501B4010E94802787FF06C0033020F0F5
:10388000E2E0D1011A96EC932DEC3CEC4CE45EE3C3
:10389000C301B2010E94E6279B01AC01C501B4013E
:1038A0000E94802787FF09C0D1011A968C911A9730
:1038B000823018F0E1E01A96EC93112321F01150B8
:1038C000D10119961C93F1018185882369F0128535
:1038D000C280D380A080B180113009F01EC341E0C6
:1038E000B601C5010E94CF126BE0260E311C8AE49E
:1038F00092E08215930509F027CF80914C099091B1
:103900004D098F719927892B09F077C00E949D2658
:1039100020E230E040E050E00E941D27605F7F4FD2
:103920008F4F9F4F6B010E949D2621E430E040E0C5
:1039300050E00E941D278B019C01005E1F4F2F4FFE
:103940003F4F47E0442E512C612C712C54E2852EC0
:10395000912CA12CB12CD70111961C930E93139688
:10396000DC92CE9212970E949D2629E030E040E042
:1039700050E00E941D276450710981099109982F18
:10398000872F762F6627F701758364830E949D2613
:10399000A30192010E941D276150710981099109BB
:1039A000982F872F762F6627D70117967C936E93D3
:1039B00016970E949D26A50194010E941D27DC01F7
:1039C000CB010A96A11DB11DF701818780870E9456
:1039D0009D2622E030E040E050E00E941D276F5F0E
:1039E0007F4F8F4F9F4FD7011A966C93BBE0EB0E22
:1039F000F11C2E143F0409F0AECF80912F0990E006
:103A00006C814F960E94FD2688E00E94390C882325
:103A100041F080912F098D3109F0DDC282E0809361
:103A2000880428960FB6F894DEBF0FBECDBFDF9195
:103A3000CF911F910F91FF90EF90DF90CF90BF90AB
:103A4000AF909F908F907F906F905F904F903F903E
:103A50002F900895A63009F401CB01968F3091057F
:103A600009F0EECA2F5F3F4F415F5F4F26303105AF
:103A700009F0E4CA80913C098111F0CA81E0809389
:103A80003C0985EE9FE00E947C0FE8CA813091409E
:103A90000CF0FCCA8CE79FEF70C0E0912F09F0E0BA
:103AA000EE0FFF1FE65FF34F85919491FC01249187
:103AB0003196E49120931F09209321092093200936
:103AC000E0932209E0932409E0932309FC01329654
:103AD00024913196E4912093FF08E093000910921D
:103AE000010941E040930209FC013496349131967A
:103AF00024913196E491E0933709309303092093A0
:103B000004091092050940930609079646E154E01E
:103B100030E020E0FC01E20FF31FE491DA01A20F94
:103B2000B31FEC932F5F3F4F2F30310599F70F965E
:103B3000415F5F4FF4E040375F0751F710920D0986
:103B400010921109109215091092190910921D096D
:103B500010923C09E1E6F4E080E0219191E021112E
:103B600090E0890F24E0E037F207B9F78F3051F485
:103B700086E08093340980E89FEF90933309809327
:103B8000320984CA80E0F5CF0496F7CF10923E093F
:103B900092CA9FEF980F90932009809321098091FA
:103BA00022098093240981E08093260980913509B8
:103BB00090913609019690933609809335090E94B9
:103BC000E613AFCA80911F098F300CF0A0CA91E0B4
:103BD000E1CF8091220987FD9FCA9FEF980F9093B4
:103BE000230990911F0990932109DBCF809122092D
:103BF00086300CF096CA91E0F1CF20912909620F2E
:103C0000711D61507109E12E012F24E53DE04CE664
:103C10005DE0C0CB20912809620F711D27FD7A95C8
:103C200061507109E0912709E12E012F26E43CE063
:103C30004EE95CE08E0F911DE7FD9A95CACBB6E187
:103C40008B2EB4E09B2EB12CA12C17E0D12CC12CD3
:103C5000F401EC0DFD1D0081002301F180913B0971
:103C6000819F000D11246091340970E0615F7F4FE6
:103C70006A0D7B1D80913209909133090496E12CE5
:103C80002FE13FE045E050E1F601A3E0EE0FFF1F1A
:103C9000AA95E1F78E0F9F1F0E94B212FFEFCF1A75
:103CA000DF0A2FE0C216D10499F63FE0830E911C83
:103CB00046E0A40EB11C54E2A516B10439F60BE09F
:103CC000C02E09E0D02E8FE1A82E89E0B82E16E094
:103CD000D60112968C911297882309F111966C9156
:103CE0001197619FB0011124615F7F4F13968C91F2
:103CF0001397860F972F911D60913409680F792FC4
:103D0000711D8C91B8E08B9FC0011124E12C00E063
:103D10002AEF3EE046E15FE004960E94B212E4E042
:103D2000CE0ED11CAC14BD0499F61FEFC12E18E0C5
:103D3000D12E16E0D6019C9111966C91911102C082
:103D4000662321F1619FB0011124615F7F4FF6016D
:103D50002281260F372F311D60913409620F732F96
:103D6000711D615071092091320930913309F8E0D9
:103D70009F9FC0011124820F931FE12C00E020EDD2
:103D80003EE044EE5EE003960E94B21224E0C20ED2
:103D9000D11C3BE0C31639E0D30661F680913209AD
:103DA00090913309892B09F016CB80914C099091A1
:103DB0004D098F719927182F1695169516952091F4
:103DC000220946E0240290011124215F3F4F6091B7
:103DD0003409462F50E080911F0968E08602C00137
:103DE0001124049660912509662309F450C060915E
:103DF00026096623E1F160912809D901A60FB11DBA
:103E000067FDBA95BD01640F751F61507109E0919E
:103E10002709E12E012F2AEF3EE042E852E18E0F02
:103E2000911DE7FD9A950E94B21260912409B6E0B7
:103E30006B02B0011124615F7F4F80912A09860FC8
:103E4000972F911D60913409680F792F711D615072
:103E5000710980912109E8E08E02C0011124E12E50
:103E6000012F2AEF3EE046E15FE00496B2CA60917E
:103E70002909620F732F711D640F751F615071093D
:103E8000E12E012F2AEF3EE046E15FE0CCCF6091CA
:103E90002809D901A60FB11D67FDBA95BD01640FB0
:103EA000751F61507109E0912709E12E012F2AEF5A
:103EB0003EE042E852E1BECE16E711CB82E058E088
:103EC00038CB282F43CB1092270940931F0910921B
:103ED00026094FCB282F5ACB10922809409322094C
:103EE0001092260966CB8281815082838111AFCBEB
:103EF0009383ADCB82818F5F8283843009F0A7CB1F
:103F00001382A5CB43E04C8346ED50E1DECB52E07B
:103F10005C83FACF61E06C83F7CFF0E4CF16D10475
:103F200028F4412FB601C5010E94020C412E512CEC
:103F30003601640C751CB301615071096034710560
:103F400020F4412FC5010E94020CD7FE02C0D12CE3
:103F5000C12C4601830121E46216710414F000E4CF
:103F600010E0801691064CF441E0B401C5010E94B6
:103F7000CF123FEF831A930AEDCFA40CB51C41E09A
:103F8000A41AB108C016D1060CF0AECC41E0B601BF
:103F9000C5010E94CF125FEFC51AD50AF3CF47E4DF
:103FA0005FE060E270E086E190E00E94A212609122
:103FB0002F096F5F8BE190E00E94FD2660912F0931
:103FC00080913009681708F418CD6F5F8CE190E09C
:103FD0000E94FD2612CD24E030E030933309209377
:103FE00032098F5F80932F0910923609109235099C
:103FF00010923C0916CD1F920F920FB60F9211240A
:104000008F939F938091E1009091E100937F909333
:10401000E10083FF0FC01092E90091E09093EB0064
:104020001092EC0092E39093ED0010929E0498E0C1
:104030009093F00082FF22C093E09093E90090916A
:10404000F200992319F09AE39093E80090918F047D
:10405000992341F090918F04915090938F04911186
:1040600001C05D9A90919D04992341F090919D0427
:10407000915090939D04911101C0289A84FF18C01B
:104080008091E2008E7E81608093E2008091E10069
:104090008F7E8093E100809190048E7E806180937A
:1040A00090049F918F910F900FBE0F901F901895C5
:1040B00080FFF7CF8091E2008E7E80618093E200E6
:1040C0008091E1008E7E8093E100809190048E7E4D
:1040D0008160E5CF1F920F920FB60F921124CF92FD
:1040E000DF92EF92FF920F931F932F933F934F9383
:1040F0005F936F937F938F939F93AF93BF93EF9350
:10410000FF93CF93DF93CDB7DEB76C97DEBFCDBF04
:104110001092E9008091E80083FF25C068E0CE019D
:1041200045960E94A90D82EF8093E8008D8987FF54
:1041300039C09091E80090FFFCCF982F907609F05D
:1041400034C19E894F89588D2F89F88C911131C0C7
:10415000803861F580918E048093F1001092F10017
:104160008EEF8093E8006C960FB6F894DEBF0FBE1A
:10417000CDBFDF91CF91FF91EF91BF91AF919F9113
:104180008F917F916F915F914F913F912F911F91EF
:104190000F91FF90EF90DF90CF900F900FBE0F9098
:1041A0001F9018959EEF9093E800C7CF1092F100F2
:1041B000D5CF913059F48111D3CF4130510581F6DB
:1041C00080918E048D7F80938E04CACF933049F402
:1041D0008111C6CF4130510519F680918E0482605D
:1041E000F2CF953041F48091E80080FFFCCF206849
:1041F0002093E300B5CF963009F0A9C00B8D1C8D3C
:1042000022E01092E90010928C0410928B04F212BA
:104210002EC010928A04109289040E94780D1F8289
:1042200099E09983FA8291E09E8390EA98879AEFC9
:10423000998720918B0430918C04275F3F4F3C83FA
:104240002B838D831092E90010928C0410928B04C2
:1042500010938A040093890449E050E0BE016F5F27
:104260007F4F80E00E94520D0E94780D79CF10930D
:104270008A04009389040E948F0CDC0112960D9130
:104280001C910115110509F451C1D801ED91FC9162
:104290000480F581E02DBE016B5E7F4FC80109955A
:1042A000009709F03EC1F80100851185EACFF3E0DF
:1042B000FF120EC08F89882309F440C0823061F458
:1042C00040E860E187E997E10E944723811148CFE8
:1042D00081E28093EB0047CF813029F440E86BE026
:1042E0008BE897E1F1CF833099F70E948F0CDC01C6
:1042F0001296ED90FC908E010F5F1F4F6801E11444
:10430000F10479F0D701ED91FC910680F781E02D61
:10431000B801C7010995080F111DF701E084F18468
:10432000EECFD8011C92F60101900020E9F73197F9
:10433000BF016C197D0940E0C601C6CF65E777E192
:10434000FB01449150E080E80E94520D09CF973064
:1043500009F4BECF983021F481E08093F10000CFC2
:10436000993009F0FDCE837009F0B2CFEBE5F2E0B1
:1043700081E031E096E32191222371F08093E900FE
:104380003093EB00DF0111972C912093EC00909378
:10439000ED008F5F873079F78EE78093EA00109207
:1043A000EA008F8980939E04DBCE8B8D9C8D1092CA
:1043B000E90010928C0410928B0490938A048093ED
:1043C0008904898D811192C08E899D89913A49F421
:1043D000813209F07DCF47E050E06EE472E080E08A
:1043E000B3CF913209F074CF833269F48F89988DFD
:1043F000B0E0A0E080934A0290934B02A0934C025D
:10440000B0934D02ADCE803269F48091E80082FF16
:10441000FCCF67E08EE492E00E94A90D8BEF8093C1
:10442000E8009ECE823209F09BCE8F8980935502A0
:10443000EEEFFFE7859194918B3F9C4D51F1E0E0C9
:10444000F8E080914E0290914F02A0915002B091FD
:104450005102803B9440A105B105F1F480915502D1
:1044600080FD1AC0EE3F8AE0F80789F587E797E7F5
:10447000918380838091600080938D0488E19BE02C
:104480000FB6F894A895809360000FBE90936000DB
:1044900067CEEEEFFAE0D5CF8081918187379747DD
:1044A00009F05ECEA89580916000886180936000DD
:1044B00080918D0480936000EE3F2AE0F20789F03E
:1044C0008091FE0A9091FF0A9183808349CE80817A
:1044D00091818737980751F29093FF0A8093FE0AE3
:1044E000C5CF1092FF0A1092FE0A3ACE0E948F0C9E
:1044F000DC0112960D911C910115110509F4E8CE0D
:10450000D801ED91FC910190F081E02DBE016B5E30
:104510007F4FC8010995811123CEF80100851185CF
:10452000EBCF181619060CF41BCED2CEF1E0FF1219
:10453000BECE69E777E104CF1F920F920FB60F92BC
:1045400011242F933F938F939F93AF93BF938091A9
:10455000840490918504A0918604B09187043091E1
:104560007E0423E0230F2D3758F50196A11DB11DC0
:1045700020937E048093840490938504A093860402
:10458000B093870480917F0490918004A09181046E
:10459000B09182040196A11DB11D80937F04909378
:1045A0008004A0938104B0938204BF91AF919F9146
:1045B0008F913F912F910F900FBE0F901F901895E4
:1045C00026E8230F0296A11DB11DD2CF1F920F9294
:1045D0000FB60F9211242F933F934F935F936F93D6
:1045E0007F938F939F93AF93BF93EF93FF938091AC
:1045F0007A0490917B04A0917C04B0917D04892B76
:104600008A2B8B2B09F440C08091790481110BC057
:1046100088B190E4892788B980917804882319F0BB
:1046200088B1805888B980917A0490917B04A091D8
:104630007C04B0917D04181619061A061B069CF41A
:1046400080917A0490917B04A0917C04B0917D04C8
:104650000197A109B10980937A0490937B04A093F8
:104660007C04B0937D04FF91EF91BF91AF919F9136
:104670008F917F916F915F914F913F912F910F900B
:104680000FBE0F901F9018950E94D40EECCFEF92A2
:10469000FF920F931F93CF93DF93F82E192FE62EDF
:1046A000042F81E0860F880F0E94240D83E00E9472
:1046B000240DCF2DD12FEC0EFD2EF11CCE15DF05D4
:1046C000B9F007FF13C0FE0184910E94240D182F3A
:1046D00080E00E94240D812321968111EFCFDF918C
:1046E000CF911F910F91FF90EF9008958881EDCFAA
:1046F00081E0F5CFEFE9F8E01382128288EE93E0D3
:10470000A0E0B0E084839583A683B78385E692E03A
:10471000918380838FEF9FEF95878487E9E4F9E0A9
:104720001582168280E1878314821382118683E8C2
:1047300092E091838083EFE3F9E01382128287E7AE
:1047400092E09183808387E0818781E08087158272
:104750001682148287832FEF3BE03093FE0820936C
:10476000FD0820E030E83093FC082093FB084698D1
:104770003E9A47983F9AEFE2F9E010821182128246
:104780001482138215821782168210861186128671
:1047900013861486158616861786EBE2F9E01082DA
:1047A000118212821382EFE1F9E0168217821086DD
:1047B000118612861386EBE0F9E0128213821682CC
:1047C00017821286138616861786128A138AEFEFCF
:1047D000F8E0128283831682878312868387089586
:1047E000789484B5826084BD84B5816084BD85B5CC
:1047F000826085BD85B5816085BD80916E008160D8
:1048000080936E001092810080918100826080937D
:10481000810080918100816080938100809180007F
:1048200081608093800080919100826080939100EC
:1048300080919100816080939100809190008160CF
:10484000809390008091C10084608093C10080912A
:10485000C10082608093C1008091C100816080931B
:10486000C1008091C30081608093C3008091C0002B
:1048700082608093C0008091C20081608093C200FA
:1048800080917A00846080937A0080917A008260BF
:1048900080937A0080917A00816080937A00809181
:1048A0007A00806880937A0010929E0410928E04A1
:1048B000109290048091D70081608093D70080EAA5
:1048C0008093D80089B5806189BD89B5826089BD32
:1048D00009B400FEFDCF61E070E080E090E00E944E
:1048E000080E8091D8008F7C80618093D8008091E1
:1048F000E000807F8093E0008091E1008E7E8093D5
:10490000E1008DE08093E200559A209A81EC80933B
:104910007C0085B1806F85B984B1877E84B984B10C
:10492000876E84B95E9A5F988AB1806D8AB9769AEB
:104930006E9881B3806F81BB899880B38D7080BB86
:1049400080E58CBD81E08DBD85E090E00E94C212C3
:104950005F9A85E090E00E94C2125E985C98E6E261
:10496000F7E184918EBD00000DB407FEFDCF3196B6
:1049700087E1E333F807A9F75C9A81E88093640044
:104980008091650081608093650081E28093500989
:104990000E94C71287FF15C05C9885EA8EBD000093
:1049A0000DB407FEFDCF5C9A2E982F982D9880911C
:1049B000640080628093640081E083BF889513BEA9
:1049C000FCCF0E94C71282FF46C02D980E94C712DA
:1049D00084788438D9F42D9A88EC90E00E94C21231
:1049E0002F9882E090E00E94F5268F3F29F06FEF2C
:1049F00082E090E00E940F2784EF91E00E94C212B3
:104A00002F9A0E94C71284788438D9F30E94C71263
:104A100084718431D9F42D9A88EC90E00E94C212FE
:104A20002E9882E090E00E94F526882329F060E02D
:104A300082E090E00E940F2784EF91E00E94C21272
:104A40002E9A0E94C71284718431D9F388EC90E0C9
:104A50000E94C212B6CF2D9A89E190E00E94F526FD
:104A6000C82F8AE190E00E94F526C23411F4843503
:104A700041F162E489E190E00E94FD2664E58AE16B
:104A800090E00E94FD2660E08BE190E00E94FD2610
:104A900060E08CE190E00E94FD2660E08DE190E016
:104AA0000E94FD2660E08EE190E00E94FD26CFE1AD
:104AB000D0E060E0CE010E94FD262196C135D105EF
:104AC000C1F782E090E00E94F5268823A1F13E9A8A
:104AD0003F9A81E080938304DD24D39400E010E0CA
:104AE000D1E089E0C82E9CE7E92EFF24FA9427E064
:104AF000B22E35E0A32E43E0942E8FB7F894409168
:104B000084045091850460918604709187048FBF5E
:104B100080915109942F981B892F909152099923C4
:104B200079F080935309109252090115110529F368
:104B30000E940000E2CF109283043E983F98CCCFB1
:104B400090915009891738F48F5F891770F7D3BE99
:104B5000889513BEEACFD0935209409351098091B2
:104B60004C0990914D09019690934D0980934C0901
:104B700080914E0980934F090E94C71280934E097D
:104B8000E0918804EA3098F4F0E0E753FA4D0C9491
:104B9000C428D325D525DA25FA25FD251026242677
:104BA00028262B264E26D09388040E94A1130E940B
:104BB000440CBBCF8CE190E00E94F526C82F8BE11E
:104BC00090E00E94F526882E8DE190E00E94F52667
:104BD00091E0813009F490E090933B0981E0C111AC
:104BE00001C080E080933109C093300980922F0981
:104BF000909288040E94CE15DACFA09288048BE1AF
:104C000090E00E94F526C82F80932B098CE190E05C
:104C10000E94F52680933009843028F410922E09E2
:104C20000E945616C4CFC230C8F3C81304C0C35084
:104C3000C0932E09F5CF8150990BC817190611F4AE
:104C4000C250F6CFC150F4CFB09288041092390907
:104C50000E947114ACCF8BE190E00E94F52691E0A8
:104C6000811101C090E090933109C09288048EE1D7
:104C700090E00E94F52691E0811101C090E09093B0
:104C80003D09F0923309E092320910923A091092EC
:104C90003C090E94EC170E94440C89CF0E94EC173B
:104CA00086CF8F929F92AF92BF92CF92DF92EF9278
:104CB000FF92CF93DF93EC01688179818A819B8198
:104CC000611571058105910521F464E279ED8BE5AB
:104CD00097E02DE133EF41E050E00E941D274901AC
:104CE0005A019B01AC01A7EAB1E40E943C276B0189
:104CF0007C01ACEEB4EFA50194010E944A27C60ED8
:104D0000D71EE81EF91EF7FE06C081E0C81AD108BA
:104D1000E10880E8F80AC882D982EA82FB82C701EA
:104D2000B6019F77DF91CF91FF90EF90DF90CF900A
:104D3000BF90AF909F908F9008958F929F92AF9267
:104D4000BF92CF92DF92EF92FF92609156027091E4
:104D500057028091580290915902611571058105A1
:104D6000910521F464E279ED8BE597E02DE133EFD5
:104D700041E050E00E941D2749015A019B01AC010E
:104D8000A7EAB1E40E943C276B017C01ACEEB4EFD2
:104D9000A50194010E944A27C60ED71EE81EF91EDF
:104DA000F7FE06C081E0C81AD108E10880E8F80AD9
:104DB000C0925602D0925702E0925802F0925902E5
:104DC000C701B6019F77FF90EF90DF90CF90BF9023
:104DD000AF909F908F900895609356027093570202
:104DE00080935802909359020895F999FECF92BD8D
:104DF00081BDF89A992780B50895262FF999FECF9D
:104E000092BD81BDF89A019700B4021639F01FBA1D
:104E100020BD0FB6F894FA9AF99A0FBE0895262F7E
:104E2000F999FECF1FBA92BD81BD20BD0FB6F8948F
:104E3000FA9AF99A0FBE01960895052E97FB1EF473
:104E400000940E94342757FD07D00E944F2707FC8B
:104E500003D04EF40C94342750954095309521950D
:104E60003F4F4F4F5F4F0895909580957095619596
:104E70007F4F8F4F9F4F08950E947127A59F900DE0
:104E8000B49F900DA49F800D911D11240895B7FF2C
:104E90000C943C270E943C27821B930B0895A1E2AF
:104EA0001A2EAA1BBB1BFD010DC0AA1FBB1FEE1FA4
:104EB000FF1FA217B307E407F50720F0A21BB30BEF
:104EC000E40BF50B661F771F881F991F1A9469F76B
:104ED00060957095809590959B01AC01BD01CF01C7
:104EE0000895A29FB001B39FC001A39F700D811DC3
:104EF0001124911DB29F700D811D1124911D0895E3
:104F00000E94C22708F481E00895E89409C097FB45
:104F10003EF490958095709561957F4F8F4F9F4F90
:104F20009923A9F0F92F96E9BB279395F6958795D4
:104F300077956795B795F111F8CFFAF4BB0F11F497
:104F400060FF1BC06F5F7F4F8F4F9F4F16C088233E
:104F500011F096E911C0772321F09EE8872F762F74
:104F600005C0662371F096E8862F70E060E02AF0B5
:104F70009A95660F771F881FDAF7880F96958795A1
:104F800097F90895990F0008550FAA0BE0E8FEEF76
:104F900016161706E807F907C0F012161306E407FD
:104FA000F50798F0621B730B840B950B39F40A26F6
:104FB00061F0232B242B252B21F408950A2609F4D4
:104FC000A140A6958FEF811D811D08950E94F927AC
:104FD0000C946A280E945C2838F00E94632820F014
:104FE000952311F00C9453280C94592811240C94F7
:104FF0009E280E947B2870F3959FC1F3950F50E087
:10500000551F629FF001729FBB27F00DB11D639F7A
:10501000AA27F00DB11DAA1F649F6627B00DA11D20
:10502000661F829F2227B00DA11D621F739FB00DC6
:10503000A11D621F839FA00D611D221F749F332736
:10504000A00D611D231F849F600D211D822F762FCF
:105050006A2F11249F5750409AF0F1F088234AF0AC
:10506000EE0FFF1FBB1F661F771F881F9150504018
:10507000A9F79E3F510580F00C9453280C949E286C
:105080005F3FE4F3983ED4F3869577956795B7959F
:10509000F795E7959F5FC1F7FE2B880F911D9695B9
:1050A000879597F9089597F99F6780E870E060E029
:1050B00008959FEF80EC089500240A9416161706B1
:1050C00018060906089500240A94121613061406F9
:1050D00005060895092E0394000C11F4882352F05C
:1050E000BB0F40F4BF2B11F460FF04C06F5F7F4F14
:1050F0008F4F9F4F089557FD9058440F551F59F0FB
:105100005F3F71F04795880F97FB991F61F09F3FB4
:1051100079F087950895121613061406551FF2CFDD
:105120004695F1DF08C0161617061806991FF1CF2D
:1051300086957105610508940895E894BB27662754
:105140007727CB0197F90895991B79E004C0991F3F
:10515000961708F0961B881F7A95C9F780950895D1
:10516000AA1BBB1B51E107C0AA1FBB1FA617B7078D
:1051700010F0A61BB70B881F991F5A95A9F78095A9
:105180009095BC01CD010895EE0FFF1F0590F4919D
:10519000E02D09940E947127B7FF0895821B930B9D
:0651A0000895F894FFCF12
:1051A60000000000000000000000010000000000F8
:1051B60000000000000100000000000000000000E8
:1051C60001000000000000000000000100000000D7
:1051D60000000000000001000000000000000000C8
:1051E60000010000000000000000000001000000B7
:1051F60000000000000000010000000000000000A8
:105206000000010000000000000000000001000096
:105216000000000000000000010000000000000087
:105226000000000100000000000000000000010076
:105236000000000000000000000100000000000067
:105246000000000001000000000000000000000156
:105256000000000000000000000001000000000047
:105266000000000000010000000000000000000037
:105276000100000000000000000000010000000026
:105286000000000000000100000000000000000017
:105296000001000000000000000000000100000006
:1052A60000000000000000010000000000000000F7
:1052B60000000100000000000000000000010000E6
:1052C60000000000000000000100000000000000D7
:1052D60000000001000000000000000000000100C6
:1052E60000000000000000000001FFFFFFFF00E1DA
:1052F6000000000000000100000000C180810000E5
:105306000000000000A30C3B0EC40CB90C0A0DC82B
:105316000CE60C00000000EE12B60D9E139D130065
:10532600000000ED124D6F76657E626574776565E7
:105336006E7E7468657E666C6F6F727E74696C656E
:10534600737E746F007475726E7E6F6E7E616C6CA8
:105356007E7468657E627574746F6E7E7377697429
:10536600636865732E004275747E62657E63617242
:105376006566756C7E74686F7567687E61737E732B
:105386006F6D6500666C6F6F727E74696C65737E97
:1053960077696C6C7E66616C6C7E7768656E7E6321
:1053A600726F737365640070726576656E74696E8C
:1053B600677E796F757E66726F6D7E6261636B2D37
:1053C600747261636B696E672100466C6F6F722041
:1053D60054696C6573004E6F726D616C3A7E6661DE
:1053E6006C6C737E617761797E6F6E63657E6372C6
:1053F6006F737365642E00446F75626C653A7E63E5
:10540600616E7E62657E63726F737365647E7477A8
:105416006963652E00536F6C69643A7E6E657665C6
:10542600727E66616C6C737E7768656E7E63726F82
:10543600737365642E00427574746F6E20537769BA
:105446007463686573004F66663A7E737769746342
:10545600687E69737E696E7E4F46467E706F73699D
:1054660074696F6E2E004F6E3A7E73776974636847
:105476007E69737E696E7E4F4E7E706F7369746946
:105486006F6E2E0050726573737E417E746F7E73ED
:10549600746172747E2100486F6C647E417E746F05
:1054A6007E7A6F6F6D7E616E647E427E746F7E71F2
:0654B6007569742E000070
:00000001FF
